:020000040000FA
:100000000C9462000C948A000C948A000C948A0070
:100010000C948A000C948A000C948A000C948A0038
:100020000C948A000C948A000C948A000C948A0028
:100030000C948A000C948A000C948A000C948A0018
:100040000C94EE160C948A000C94BC160C94961624
:100050000C948A000C948A000C948A000C948A00F8
:100060000C9438170C948A0000000000230026002E
:10007000290000000008000201000003040700003E
:1000800000000000000000000000250028002B00F8
:1000900000000000240027002A00040404040404D3
:1000A0000404020202020202030303030303010227
:1000B00004081020408001020408102001020408F6
:1000C0001020571811241FBECFEFD8E0DEBFCDBFE0
:1000D00012E0A0E0B1E0EEE6F8E402C005900D9277
:1000E000A238B107D9F725E0A2E8B2E001C01D921D
:1000F000A931B207E1F710E0C2E6D0E004C02197D1
:10010000FE010E942A24C136D107C9F70E94BE18F9
:100110000C9435240C940000FB01DC016C911296C8
:100120007C91962F990F990F990F35E5292F239FD1
:10013000020E20E0211D1124822F562F5074462FCD
:10014000407267FD40C051112CC0411105C0922F73
:100150009095892F90E004C025E5280F90E08BEA68
:100160007F3FD9F030E0772321F0779F312D09F0E0
:100170003F5F332309F448C0482F439F040E40E0FB
:10018000411D842F239F020E20E0211D492F439FF4
:10019000040E40E0411D942F11248083218392831B
:1001A000089541110BC0392F2AEA329F030E30E027
:1001B000311D11249BEA931B280FCBCF90E0209593
:1001C000982F80E0CDCF511112C041110CC0392FB2
:1001D0002AEA329F030E30E0311D11242BEA231B43
:1001E00095E5930FEECF922F909520E0B9CF411176
:1001F00006C025E5280F9BEA981B822FF6CF2AEA36
:10020000280F90E0932FF8CF90E020E080E0C5CF5A
:10021000CF93DF9390E0FC01E255FF4F2491865687
:100220009F4FFC0184918823C1F090E0880F991FB3
:10023000FC01E057FF4FC591D491FC01EA57FF4FF5
:10024000A591B4919FB7F8948881E22FE0958E2311
:1002500088838C91E823EC939FBFDF91CF91089521
:1002600080E991E0089508950895AF92BF92CF92EA
:10027000DF92EF92FF920F931F93CF93DF936C0166
:100280007B018B01040F151FEB015E01AE18BF0847
:10029000C017D10759F06991D601ED91FC910190F9
:1002A000F081E02DC6010995892B79F7C501DF9111
:1002B000CF911F910F91FF90EF90DF90CF90BF9063
:1002C000AF900895FC01538D448D252F30E0842F8D
:1002D00090E0821B930B541710F0CF96089501976E
:1002E0000895FC01918D828D981761F0A28DAE0F5B
:1002F000BF2FB11D5D968C91928D9F5F9F73928FE2
:1003000090E008958FEF9FEF0895FC01918D828D0D
:10031000981731F0828DE80FF11D858D90E00895DA
:100320008FEF9FEF0895FC01918D228D892F90E032
:10033000805C9F4F821B91098F73992708958EE4EB
:1003400094E00E94930121E0892B09F420E0822FA0
:10035000089580E090E0892B29F00E949F0181118F
:100360000C9400000895FC01A48DA80FB92FB11DB5
:10037000A35ABF4F2C91848D90E001968F739927DB
:10038000848FA689B7892C93A089B1898C918370B9
:1003900080648C93938D848D981306C00288F389B2
:1003A000E02D80818F7D80830895EF92FF920F93DF
:1003B0001F93CF93DF93EC0181E0888F9B8D8C8D11
:1003C00098131AC0E889F989808185FF15C09FB705
:1003D000F894EE89FF896083E889F98980818370C8
:1003E000806480839FBF81E090E0DF91CF911F9177
:1003F0000F91FF90EF900895F62E0B8D10E00F5F98
:100400001F4F0F731127E02E8C8D8E110CC00FB66D
:1004100007FCFACFE889F989808185FFF5CFCE0105
:100420000E94B301F1CFEB8DEC0FFD2FF11DE35ACC
:10043000FF4FF0829FB7F8940B8FEA89FB89808188
:100440008062CFCFCF93DF93EC01888D8823B9F002
:10045000AA89BB89E889F9898C9185FD03C08081CF
:1004600086FD0DC00FB607FCF7CF8C9185FFF2CF4C
:10047000808185FFEDCFCE010E94B301E9CFDF91EE
:10048000CF910895833081F028F4813099F0823043
:10049000A9F008958730A9F08830C9F08430B1F40C
:1004A000809180008F7D03C0809180008F77809342
:1004B0008000089584B58F7784BD089584B58F7DBD
:1004C000FBCF8091B0008F778093B000089580912A
:1004D000B0008F7DF9CFCF93DF93282F30E0F90163
:1004E000EE58FF4F8491F901E255FF4FD491F90185
:1004F000E656FF4FC491CC23A1F081110E94420225
:10050000EC2FF0E0EE0FFF1FE859FF4FA591B491DB
:10051000EC91ED2381E090E009F480E0DF91CF9150
:10052000089580E090E0FACF1F93CF93DF93282FB8
:1005300030E0F901EE58FF4F8491F901E255FF4F89
:10054000D491F901E656FF4FC491CC23A9F0162FA0
:1005500081110E944202EC2FF0E0EE0FFF1FEA57DC
:10056000FF4FA591B4918FB7F894EC91111108C089
:10057000D095DE23DC938FBFDF91CF911F9108953B
:10058000DE2BF8CF3FB7F8948091EB029091EC020C
:10059000A091ED02B091EE0226B5A89B05C02F3FB9
:1005A00019F00196A11DB11D3FBFBA2FA92F982F99
:1005B0008827BC01CD01620F711D811D911D42E094
:1005C000660F771F881F991F4A95D1F708954F929C
:1005D0005F926F927F929F92AF92BF92CF92DF9283
:1005E000EF92FF920F931F93CF93DF9300D01F9250
:1005F000CDB7DEB7D82E8091EE049091EF04A09194
:10060000F004B091F104892B8A2B8B2BD9F00E9436
:10061000C20200914A0410914B0420914C04309185
:100620004D04601B710B820B930B0091EE04109133
:10063000EF042091F0043091F104601771078207F4
:100640009307C8F20E94C20260934A0470934B045D
:1006500080934C0490934D04E091F604F091F704DC
:10066000309759F04091F2045091F3046091F404F2
:100670007091F5048D2D0995D82EE0904804F090E6
:1006800049044D2C512C712C612CE114F10409F416
:1006900059C0D7011C96CC901C978091EC04909186
:1006A000ED048436910510F41C961C92D701ED914F
:1006B000FC91A280B38019821A821B82DD2079F11D
:1006C000F701369610E000E02191222319F1928083
:1006D000992001F130E050E040E02F5F3F4F4F4F55
:1006E0005F4FC301B2010E94EB239B01AC01892D36
:1006F00090E0B0E0A0E0BC01CD016F5F7F4F8F4F75
:100700009F4F0E94EB23A1E0B0E0AC0FBD1FA00FF4
:10071000B11F8C930F5F1F4F03301105A9F609819C
:100720001A812B81F7014585568562817381C70146
:10073000F5010995D7011C96CC921C971496ED9063
:10074000FC90A3CF80914604909147049C012F5FB9
:100750003F4F309347042093460449970CF44AC016
:100760008FB7F89420913E0430913F0440914004AB
:10077000509141048FBF8091420490914304A09115
:100780004404B0914504281B390B4A0B5B0B21F440
:1007900021E030E040E050E0E0914604F091470471
:1007A00088EE93E0E89FB001E99F700DF89F700D0F
:1007B0001124072E000C880B990B0E941F213093E7
:1007C000ED042093EC0410924704109246042FB7D6
:1007D000F89480913E0490913F04A0914004B09120
:1007E00041042FBF8093420490934304A093440498
:1007F000B09345040F900F900F90DF91CF911F9110
:100800000F91FF90EF90DF90CF90BF90AF909F90AF
:100810007F906F905F904F9008958F929F92AF92CC
:10082000BF92CF92DF92EF92FF926B017C010E9408
:10083000C2024B015C01C114D104E104F104B9F01E
:100840000E94C202681979098A099B09683E7340AF
:100850008105910580F321E0C21AD108E108F10871
:1008600088EE880E83E0981EA11CB11CE4CFFF9097
:10087000EF90DF90CF90BF90AF909F908F900895B2
:10088000DC01ED91FC910190F081E02D0994209123
:10089000C702260F3327331F21323105ECF4209194
:1008A0001204FC0190E080E0243069F082E00895B9
:1008B000A091C7022191AC0149555D4FA40FB52FFE
:1008C000B11D2C930196861798F38091C702680F8B
:1008D0006093C70280E0089581E0089510921204A9
:1008E00081E08093110410920C0461E082E10E9487
:1008F000940261E083E10E949402E9EBF0E08081E0
:100900008E7F808380818D7F808388E48093B80090
:1009100085E48093BC000895CF93DF9391E090939A
:10092000A6028823B9F0C091B800D091BA00809196
:10093000BC008A7B8093BC0060E082E10E9494024C
:1009400060E083E10E9494020E946E04D093BA009A
:10095000C093B800DF91CF9108950895E0911904F4
:1009600080911804E81730F4F0E0E65EFB4F8081D8
:1009700090E008958FEF9FEF089590911904809172
:1009800018042FEF3FEF981748F4E92FF0E0E65EE8
:10099000FB4F208130E09F5F90931904C9010895B7
:1009A0008091180490911904891B990B0895CF9296
:1009B000DF92EF92FF920F931F93CF93DF937C010F
:1009C000CB018A0120913D04222389F0EB016B01C8
:1009D000C40ED51ECC15DD0569F06991D701ED91E6
:1009E000FC910190F081E02DC7010995F3CF642FB0
:1009F0000E944704C801DF91CF911F910F91FF9092
:100A0000EF90DF90CF900895CF93DF931F92CDB7F3
:100A1000DEB7698320913D042223F9F020913A0446
:100A2000203258F021E030E0FC013383228390E053
:100A300080E00F90DF91CF91089580913B04E82FE3
:100A4000F0E0EA57FD4F998190838F5F80933B04DC
:100A500080933A0481E090E0ECCF61E0CE01019612
:100A60000E944704F7CFCF92DF92EF92FF920F934D
:100A70001F93CF93DF93D0913A0481E0D13208F0F5
:100A80009CC0C0913C040E94C2026B017C01809119
:100A9000120481116CC082E08093120481E0809383
:100AA00011048FEF8093100410920F04D0930E0462
:100AB000A6E8B2E0ECEEF3E080E0D8138DC010922F
:100AC0000D0480910D04CC0FC82BC0930D048091B0
:100AD0000C04813009F084C010920C040E94C20200
:100AE0006B017C0180910D048093BB008091140404
:100AF00090911504A0911604B0911704892B8A2BAC
:100B00008B2BA1F00E94C2020091140410911504D5
:100B100020911604309117046C197D098E099F09E4
:100B2000061717072807390708F442C08091BC0050
:100B300083FDD8CF85EC8093BC000E94C2026B017C
:100B40007C0180911204823009F44CC08091100421
:100B50008F3F09F469C080911004803209F466C0A7
:100B600080911004803309F463C084E026C0809132
:100B7000140490911504A0911604B0911704892BC8
:100B80008A2B8B2B09F483CF0E94C202009114049C
:100B90001091150420911604309117046C197D09E9
:100BA0008E099F09061717072807390708F06FCF26
:100BB000809113040E948C0485E010923B041092F3
:100BC0003A0410923D04DF91CF911F910F91FF9055
:100BD000EF90DF90CF9008959D9191938F5F6DCFAF
:100BE00085EEA9CF8091140490911504A09116046C
:100BF000B0911704892B8A2B8B2B09F4A2CF0E946A
:100C0000C202009114041091150420911604309131
:100C100017046C197D098E099F0906171707280705
:100C2000390708F08ECFC4CF80E0C7CF82E0C5CFB0
:100C300083E0C3CFEF92FF920F931F93CF93DF9385
:100C4000E62E072FF42E152FC2E1D5E0A981BA8137
:100C5000988121E020933D0490933C0410923B0442
:100C600010923A0494E0899FB00111246A5F7F4F8B
:100C7000ED91FC9111970190F081E02DCD01099546
:100C80006E2D702F89819A810E944004602F70E040
:100C900089819A810E9440046F2D712F89819A81E8
:100CA0000E944004612F70E089819A810E94400473
:100CB00089819A81DF91CF911F910F91FF90EF90E1
:100CC0000C9433051F93CF93DF93162FC2E1D5E029
:100CD000A981BA81988121E020933D0490933C043E
:100CE00010923B0410923A04ED91FC9111970190FF
:100CF000F081E02D682FCD01099589819A81DC0171
:100D0000ED91FC910190F081E02D612F0995898191
:100D10009A81DF91CF911F910C94330590E080E090
:100D200008950F931F93CF93DF93209185022F5F38
:100D3000322F37703093850220FF2BC020E831FD21
:100D40002064347009F02062205FFC01EC012396DE
:100D500000E011E06485662329F070E0C8010E947C
:100D6000FB236F5F6187322F369F030E30E0311D0A
:100D70001124311110C01682662311F06150618771
:100D80003196EC17FD0731F7DF91CF911F910F914D
:100D9000089520E0D4CF31503683EECF4F925F924A
:100DA0007F928F929F92AF92BF92CF92DF92EF92FB
:100DB000FF920F931F93CF93DF932C01EB010E94BF
:100DC000C202F20127853089621B730B6A307105FC
:100DD000B0F3F8948A819B81181619060CF0CDC1E6
:100DE000E881F98165B1862E689480F835B13E7F3F
:100DF00035B9D9848E812D2D281B822F2E834F85C6
:100E0000042E000C550BAA81BB817C85FD84EE84E9
:100E10007F5FF394E3949F819884BA84AB841081BC
:100E2000C12C6C2D0C2D2C2D208111278894211183
:100E3000280F08F42FEF8195889470FD120F1795F5
:100E4000889471FD120F1795889472FD120F1795F3
:100E5000889473FD120F1795889474FD120F1795DF
:100E6000889475FD120F1795889476FD120F1795CB
:100E7000889477FD120F17958894622F7111612F56
:100E80008D0D162F002C85B800C017FF35B92181B4
:100E90006627889400C000C0002C35B92111290FA5
:100EA00000C0002C85B800C016FF35B908F42FEF3C
:100EB0009195889400C000C0002C35B9F0FC620FF9
:100EC00000C0002C85B800C015FF35B9679588941F
:100ED000F1FC620F00C000C0002C35B96795889402
:100EE00000C0002C85B800C014FF35B9F2FC620FB9
:100EF0006795889400C000C0002C35B9F3FC620FE0
:100F000000C0002C85B800C013FF35B967958894E0
:100F1000F4FC620F00C000C0002C35B967958894BE
:100F200000C0002C85B800C012FF35B9F5FC620F77
:100F30006795889400C000C0002C35B9F6FC620F9C
:100F400000C0002C85B800C011FF35B967958894A2
:100F5000F7FC620F00C000C0002C35B9679588947B
:100F600000C0002C85B800C010FF35B9122FF11059
:100F7000162F9B0D00C000C0002C35B900C000C06A
:100F8000002C85B800C017FF35B9228166278894E8
:100F900000C000C0002C35B92111290D00C0002C63
:100FA00085B800C016FF35B908F42FEFE40FF51F20
:100FB00000C000C0002C35B9E0FC620F00C0002C5E
:100FC00085B800C015FF35B967958894E1FC620FBC
:100FD00000C000C0002C35B96795889400C0002C73
:100FE00085B800C014FF35B9E2FC620F679588949C
:100FF00000C000C0002C35B9E3FC620F00C0002C1B
:1010000085B800C013FF35B967958894E4FC620F7A
:1010100000C000C0002C35B96795889400C0002C32
:1010200085B800C012FF35B9E5FC620F679588945A
:1010300000C000C0002C35B9E6FC620F00C0002CD7
:1010400085B800C011FF35B967958894E7FC620F39
:1010500000C000C0002C35B96795889400C0002CF2
:1010600085B800C010FF35B9122FE110162F9194EA
:1010700000C000C0002C35B99A0C00C000C085B873
:1010800000C017FF35B920816627889400C000C0D2
:10109000002C35B92111280F00C0002C85B800C0E4
:1010A00016FF35B908F42FEF8195889400C000C071
:1010B000002C35B970FD620F00C0002C85B800C04F
:1010C00015FF35B96795889471FD620F00C000C0A7
:1010D000002C35B96795889400C0002C85B800C0F5
:1010E00014FF35B972FD620F6795889400C000C087
:1010F000002C35B973FD620F00C0002C85B800C00C
:1011000013FF35B96795889474FD620F00C000C065
:10111000002C35B96795889400C0002C85B800C0B4
:1011200012FF35B975FD620F6795889400C000C045
:10113000002C35B976FD620F00C0002C85B800C0C8
:1011400011FF35B96795889477FD620F00C000C024
:10115000002C35B96795889400C0002C85B800C074
:1011600010FF35B9122F7111162F8D0D00C000C060
:10117000002C35B9119709F086CE4A815B8120EEAB
:1011800031E0DA010E940F24DC01CB01F4E0B695D6
:10119000A79597958795FA95D1F730E020E0B901AA
:1011A000EAE94E9F040E611D5E9F600D711D1124C2
:1011B000650F711D860F971FA11DB11D893E43E06C
:1011C0009407A105B10508F434C0885E9340A109D5
:1011D000B10942E0B695A795979587954A95D1F7BD
:1011E00047E0849F080E211D949F200D311D11247E
:1011F000290F311D6091840270E0860F971F820FC6
:10120000931F40913E0450913F04609140047091BF
:101210004104292F3327420F531F611D711D409335
:101220003E0450933F0460934004709341048093C4
:10123000840278940E94C202F201708B6787DF916A
:10124000CF911F910F91FF90EF90DF90CF90BF90C3
:10125000AF909F908F907F905F904F900895209ACD
:1012600008954F925F927F928F929F92AF92BF921A
:10127000CF92DF92EF92FF920F931F93CF93DF9362
:101280002C01EB010E94C202F20127853089621B0A
:10129000730B6A307105B0F3F8948A819B8118163C
:1012A00019060CF0CDC1E881F9816BB1862E6894E6
:1012B00087F83BB13F773BB9D9848E812D2D281B10
:1012C000822F2E834F85042E000C550BAA81BB81E3
:1012D0007C85FD84EE847F5FF394E3949F81988402
:1012E000BA84AB841081C12C6C2D0C2D2C2D208147
:1012F000112788942111280F08F42FEF81958894E5
:1013000070FD120F1795889471FD120F1795889430
:1013100072FD120F1795889473FD120F179588941C
:1013200074FD120F1795889475FD120F1795889408
:1013300076FD120F1795889477FD120F17958894F4
:10134000622F7111612F8D0D162F002C8BB800C0EC
:1013500017FF3BB921816627889400C000C0002C8C
:101360003BB92111290F00C0002C8BB800C016FF1B
:101370003BB908F42FEF9195889400C000C0002C71
:101380003BB9F0FC620F00C0002C8BB800C015FF09
:101390003BB967958894F1FC620F00C000C0002C37
:1013A0003BB96795889400C0002C8BB800C014FF2F
:1013B0003BB9F2FC620F6795889400C000C0002C16
:1013C0003BB9F3FC620F00C0002C8BB800C013FFC8
:1013D0003BB967958894F4FC620F00C000C0002CF4
:1013E0003BB96795889400C0002C8BB800C012FFF1
:1013F0003BB9F5FC620F6795889400C000C0002CD3
:101400003BB9F6FC620F00C0002C8BB800C011FF86
:101410003BB967958894F7FC620F00C000C0002CB0
:101420003BB96795889400C0002C8BB800C010FFB2
:101430003BB9122FF110162F9B0D00C000C0002CDD
:101440003BB900C000C0002C8BB800C017FF3BB9EF
:1014500022816627889400C000C0002C3BB921116E
:10146000290D00C0002C8BB800C016FF3BB908F452
:101470002FEFE40FF51F00C000C0002C3BB9E0FCCB
:10148000620F00C0002C8BB800C015FF3BB96795F8
:101490008894E1FC620F00C000C0002C3BB9679546
:1014A000889400C0002C8BB800C014FF3BB9E2FC4C
:1014B000620F6795889400C000C0002C3BB9E3FC24
:1014C000620F00C0002C8BB800C013FF3BB96795BA
:1014D0008894E4FC620F00C000C0002C3BB9679503
:1014E000889400C0002C8BB800C012FF3BB9E5FC0B
:1014F000620F6795889400C000C0002C3BB9E6FCE1
:10150000620F00C0002C8BB800C011FF3BB967957B
:101510008894E7FC620F00C000C0002C3BB96795BF
:10152000889400C0002C8BB800C010FF3BB9122F6C
:10153000E110162F919400C000C0002C3BB99A0C0A
:1015400000C000C08BB800C017FF3BB920816627E0
:10155000889400C000C0002C3BB92111280F00C0A6
:10156000002C8BB800C016FF3BB908F42FEF819513
:10157000889400C000C0002C3BB970FD620F00C011
:10158000002C8BB800C015FF3BB96795889471FD9E
:10159000620F00C000C0002C3BB96795889400C062
:1015A000002C8BB800C014FF3BB972FD620F679529
:1015B000889400C000C0002C3BB973FD620F00C0CE
:1015C000002C8BB800C013FF3BB96795889474FD5D
:1015D000620F00C000C0002C3BB96795889400C022
:1015E000002C8BB800C012FF3BB975FD620F6795E8
:1015F000889400C000C0002C3BB976FD620F00C08B
:10160000002C8BB800C011FF3BB96795889477FD1B
:10161000620F00C000C0002C3BB96795889400C0E1
:10162000002C8BB800C010FF3BB9122F7111162F80
:101630008D0D00C000C0002C3BB9119709F086CE7B
:101640004A815B8120EE31E0DA010E940F24DC0147
:10165000CB01F4E0B695A79597958795FA95D1F7C4
:1016600030E020E0B901EAE94E9F040E611D5E9F63
:10167000600D711D1124650F711D860F971FA11D2F
:10168000B11D893E43E09407A105B10508F434C0BB
:10169000885E9340A109B10942E0B695A795979558
:1016A00087954A95D1F747E0849F080E211D949FA6
:1016B000200D311D1124290F311D6091840270E02D
:1016C000860F971F820F931F40913E0450913F0455
:1016D0006091400470914104292F3327420F531F1A
:1016E000611D711D40933E0450933F04609340047C
:1016F000709341048093840278940E94C202F201A4
:10170000708B6787DF91CF911F910F91FF90EF90C2
:10171000DF90CF90BF90AF909F908F907F905F9021
:101720004F900895579A08956F927F928F92CF921B
:10173000DF92EF92FF920F931F93CF93DF93CDB77A
:10174000DEB762970FB6F894DEBF0FBECDBF6C0157
:101750007A013801822EDC011C962C91CA0157FFB8
:1017600004C088279927841B950B7A8369839C83FF
:101770008B839E838D836D867E868F86213049F58F
:10178000CE0101960E94910683E0888B1A8A198AFD
:10179000F7FE02C08DEF888BD601ED91FC91048499
:1017A000F585E02DBE016F5F7F4FC60109956296FA
:1017B0000FB6F894DEBF0FBECDBFDF91CF911F9162
:1017C0000F91FF90EF90DF90CF908F907F906F9070
:1017D00008951C861B861A86198618861F82D4CF08
:1017E000EF92FF920F931F93CF93DF93CDB7DEB7A6
:1017F00062970FB6F894DEBF0FBECDBF7C01DC014F
:101800001C968C917A8369835C834B835E834D83C2
:101810000D871E872F878130F9F4CE0101960E9433
:101820009106188A1A8A198AD701ED91FC910484CD
:10183000F585E02DBE016F5F7F4FC7010995629668
:101840000FB6F894DEBF0FBECDBFDF91CF911F91D1
:101850000F91FF90EF9008951C861B861A861986BB
:1018600018861F82DECF2FB7F89460913E047091E6
:101870003F0480914004909141042FBF0E946A224E
:101880002FE632E143E85AE30E94792320E030E07A
:1018900040E752E40E94C22120E030E0A9010E940A
:1018A000512108954F925F926F927F928F929F92F3
:1018B000AF92BF92CF92DF92EF92FF920F931F935E
:1018C000CF93DF932B013C01C42FD0E0FE01E35105
:1018D000FE4F008110E0CE01880F991FFC01E152FC
:1018E000FE4F808091808F529E4FFC01A080B1807E
:1018F000B50190E080E00E946A226B017C01B80192
:10190000012E000C880B990B0E946C229B01AC01EC
:10191000C301B2010E9450212B013C01B4016A199C
:101920007B0990E080E00E946A229B01AC01C30128
:10193000B2010E9479232B013C01C653DE4F68811E
:1019400070E0601B710B072E000C880B990B0E9436
:101950006C229B01AC01C301B2010E94C22196011D
:10196000A7010E9451218B01D82FC92F9B01482F1D
:10197000592FB601C7010E94BD2187FD03C0860112
:10198000DE2DCF2DB40190E080E00E946A226B0131
:101990007C0198014D2F5C2F0E94742318161CF0B7
:1019A0008601DE2DCF2DB8018D2F9C2F0E943B226A
:1019B000CB01DF91CF911F910F91FF90EF90DF90BE
:1019C000CF90BF90AF909F908F907F906F905F90DF
:1019D0004F9008954F925F926F927F928F929F9255
:1019E000AF92BF92CF92DF92EF92FF920F931F932D
:1019F000CF93DF9300D01F92CDB7DEB74EEBE42E2E
:101A000041E0F42E05E111E057EDC52E53E0D52E4F
:101A10006AE1862E61E0962E73E0572E66246A9462
:101A2000D701ED91FC91408032E0A32EB12C7724B8
:101A30007394741440F5D701ED91FC91EA0DFB1DF0
:101A400060817181F8018081D6019C9199836A82BD
:101A50008B83653178F06551659DB00111246A5D15
:101A60007C4FCE0101960E948C007394B2E0AB0EC5
:101A7000B11CDFCF7727CB01880F991F680F791F23
:101A800061577C4FEECFE2E0EE0EF11C0F5F1F4F6F
:101A9000F2E0CF0ED11C8016910611F680911A014A
:101AA000853030F480912101853010F410921A01B4
:101AB00080911B01853030F480912201853010F433
:101AC00010921B0180911A019091E10399831FEFFD
:101AD0001A838B8369E873E0CE0101960E948C0023
:101AE00080911B019091E30399831A838B836CE8A7
:101AF00073E0CE0101960E948C000F900F900F9022
:101B0000DF91CF911F910F91FF90EF90DF90CF90D9
:101B1000BF90AF909F908F907F906F905F904F900D
:101B20000895ECE1F1E01082118212821382148296
:101B300085836683E5E1F1E01082118212821382CF
:101B40001482858366830E94EA0C8091EB040C94D6
:101B5000E702CF92DF92EF92FF920F931F93E7E09D
:101B6000F1E0918380837383628355834483378359
:101B7000268311870087F386E286D586C486E7ED43
:101B8000F3E0918380837383628355834483378337
:101B9000268311870087F386E286D586C4860E9455
:101BA000EA0C8091EB041F910F91FF90EF90DF9072
:101BB000CF900C94E70290E080E00895FC018585C9
:101BC000968508950F931F93CF93DF9300D01F92B4
:101BD000CDB7DEB7AB0119821A821B82DC01ED9111
:101BE000FC910190F081E02D00E010E020E0BE01CA
:101BF0006F5F7F4F09950F900F900F90DF91CF91FE
:101C00001F910F910895FC018BEA91E091838083ED
:101C1000138212828FEF86838783808781878287F2
:101C2000838781E0848716861586158214828091C9
:101C3000480490914904892B21F4F0934904E093DE
:101C40004804A0918202B0918302109721F015966A
:101C5000FC93EE931497F0938302E093820208952D
:101C6000FC0101900020E9F73197AF01481B590BA7
:101C7000BC018EE494E00C9435018F929F92AF9258
:101C8000BF920F931F93CF93DF93CDB7DEB7A1978A
:101C90000FB6F894DEBF0FBECDBF19A2423008F4D4
:101CA0004AE08E010F5D1F4F842E912CB12CA12C88
:101CB000A50194010E941F21E62FB901CA01EA3053
:101CC000F4F4E05DD801EE938D01232B242B252B1A
:101CD00079F790E080E0109719F0CD010E94300E66
:101CE000A1960FB6F894DEBF0FBECDBFDF91CF91A6
:101CF0001F910F91BF90AF909F908F900895E95CD6
:101D0000E1CFCF93DF930E94300EEC018CE392E0A1
:101D10000E94300E8C0F9D1FDF91CF910895BC0162
:101D2000990F880B990B4AE00C943D0ECF92DF92ED
:101D3000EF92FF920F931F93CF93A0911305B09151
:101D400014059091120521E020933D0490933C04EA
:101D500010923B0410923A04ED91FC91119701907E
:101D6000F081E02D682FCD010995809113059091A8
:101D700014050E943305C09112050E94C2026B0136
:101D80007C0180911204811164C081E0809312046F
:101D9000809311049FEF9093100410920F041092FF
:101DA0000E0480930D0480910D04CC0FC82BC093BA
:101DB0000D0480910C04813009F088C010920C044D
:101DC0000E94C2026B017C0180910D048093BB00D4
:101DD0008091140490911504A0911604B0911704F9
:101DE000892B8A2B8B2BA1F00E94C2020091140434
:101DF0001091150420911604309117046C197D0977
:101E00008E099F09061717072807390708F442C0EB
:101E10008091BC0083FDD8CF85EC8093BC000E94EC
:101E2000C2026B017C0180911204813009F450C020
:101E300080910F0481116EC080910F04ECEEF3E0ED
:101E4000AAE1B4E090E0981751F121912D939F5FA2
:101E5000FACF8091140490911504A0911604B091CA
:101E60001704892B8A2B8B2B09F48BCF0E94C2027B
:101E70000091140410911504209116043091170458
:101E80006C197D098E099F0906171707280739075E
:101E900008F077CF809113040E948C0480E01092A8
:101EA0001904809318048091130590911405DC01A6
:101EB000ED91FC910284F385E02D0995CF911F915E
:101EC0000F91FF90EF90DF90CF90089585EEA5CF12
:101ED0008091140490911504A0911604B0911704F8
:101EE000892B8A2B8B2B09F49ECF0E94C202009172
:101EF00014041091150420911604309117046C19E4
:101F00007D098E099F09061717072807390708F06A
:101F10008ACFC0CF81E092CF8F929F92AF92BF9233
:101F2000CF92DF92EF92FF92CF93C82F90E080E0A4
:101F30000E946A226B017C018EEF0E94960E682F30
:101F400070E06F5F7F4F90E080E00E946A2220E0A7
:101F500034E244E759E40E9479234B015C0160912B
:101F600015057091160580911705909118050E942E
:101F70006A229B01AC01C501B4010E94C2219B01F0
:101F8000AC01C701B6010E94C2210E943B22AB01F5
:101F900070E060E08C2FCF91FF90EF90DF90CF90BA
:101FA000BF90AF909F908F900C941A068F929F9243
:101FB000AF92BF92CF92DF92EF92FF92CF936B01DD
:101FC0007C0120E030E040E85FE30E94BD2187FD16
:101FD0007AC020E030EC4AE555E4C701B6010E9422
:101FE000742318163CF4C12C30ECD32E3AE5E32EC2
:101FF00035E4F32E60911505709116058091170553
:10200000909118050E946A224B015C0120E030E0AB
:1020100040E855E4C701B6010E9479239B01AC0159
:10202000C501B4010E94C22120E030E040E05FE33E
:102030000E94512120E030E040E85FE30E945021FF
:102040006B017C0120E030E040E450E40E94BD21BF
:1020500087FD40C020E030E04FE753E4C701B60100
:102060000E947423181634F4C12CD12C9FE7E92E5A
:1020700093E4F92E80E00E94960EC82F682F6F76A9
:10208000606180E00E946206C701B6010E943B22A7
:102090008EEF0E9462066C2F80E00E94620665E06F
:1020A00070E080E090E00E940D046C2F606A80E098
:1020B000CF91FF90EF90DF90CF90BF90AF909F9027
:1020C0008F900C946206C12CD12C20E8E22E2FE3D5
:1020D000F22E90CFC12CD12C80E4E82EFE2CCACF5A
:1020E0006F927F928F929F92AF92BF92CF92DF9228
:1020F000EF92FF920F931F93CF93DF9323E1822EF2
:1021000021E0922E33E2E32E31E0F32E45E1C42E9E
:1021100041E0D42E94E0A92E95E0B92ECBE0D5E095
:1021200007EB11E09801BE01F5018191DB019D9162
:10213000BD01D9014D919D01891B990B97FF03C0EA
:10214000919581959109481719060CF457C0B5E08F
:10215000EB30FB0751F7ECE1F1E045E151E080E0C5
:10216000682E81E0782E93018191DA019D91AD0175
:10217000D9016D919D01891B990B97FF03C0919522
:102180008195910968171906CCF1B1E0E332FB079C
:1021900059F7E7E0F1E027ED33E081919191D90122
:1021A0004D915D919D018417950729F1841B950B35
:1021B000D3014D913D014817190604F18E169F0673
:1021C00061F7C4E050E040E060E070E18C2F0E94D5
:1021D0001A06CF5FCB30B1F7DF91CF911F910F91EE
:1021E000FF90EF90DF90CF90BF90AF909F908F9037
:1021F0007F906F90089590E080E0DACF712CF50128
:1022000041915F018881D8019D918D01E42FE81BE8
:10221000FF0B9F01F7FF03C03195219531099217FC
:1022200013069CF4841708F067C0890F88836881BF
:1022300070E090E080E00E946A22472D0E94520CDC
:10224000BC0184E0870D0E948C0F73942196F7E007
:102250007F12D5CFCCE1D1E0A5E1B1E000E011E003
:10226000A80169918C91FA019191AF01E62FE81BC9
:10227000FF0B9F01F7FF03C031952195310992179C
:10228000130624F48617D0F5890F8C931196EC165B
:10229000FD0639F7C7E0D1E0A7EDB3E049915991C8
:1022A0008D919C911197BA01681B790B48175907BA
:1022B00011F470E060E0F80121918F0130E0261701
:1022C000370740F484179507D8F4820F931F1196AF
:1022D0009C938E931296CC16DD0601F70E94EA0CB1
:1022E0008091EB040E94E7026091E60370E090E0C9
:1022F00080E00E940D040ECF891B98CF891BC5CFAB
:10230000821B930BE4CFCF93DF93C4E0D5E08BE641
:1023100088830E94701064E670E080E090E00E9484
:102320000D0488E28883DF91CF910C947010CF93D5
:10233000DF93C4E0D5E080E689830E94701064E6F4
:1023400070E080E090E00E940D0486E98983DF91CF
:10235000CF910C947010CF93DF93C4E0D5E08BE65F
:10236000888380E689830E94701064E670E080E0D4
:1023700090E00E940D0488E2888386E98983DF91DA
:10238000CF910C947010EF92FF921F93CF93DF9335
:102390007C010E947010C0E018E7D0EACE151F043F
:1023A000B4F410930A050E94701064E670E080E0B7
:1023B00090E00E940D04D0930A050E94701064E61C
:1023C00070E080E090E00E940D04CF5FE7CF88E2EC
:1023D00080930A05DF91CF911F91FF90EF900C94AD
:1023E00070100E943024CF92DF92EF92FF926B0127
:1023F0007C01C114D104E104F10441F00E94952054
:10240000A70196010E94ED206B017C01C701B60176
:10241000FF90EF90DF90CF9008950F931F93CF938D
:10242000DF9383E00E946B028C0181E001151105AE
:1024300009F480E08093D60382E00E946B02EC01F5
:1024400081E0209709F480E08093EA0386E00E940F
:102450006B0221E0892B09F420E02093EB03012B90
:10246000E9F064E170E080E090E00E94F3116C59C3
:102470007F4F8F4F9F4F7093E8036093E7030E9455
:10248000330C6093CE037093CF038093D00390936B
:10249000D103DF91CF911F910F910895CD2BC9F3F7
:1024A00064E170E080E090E00E94F31168537F4F98
:1024B0008F4F9F4FE0CF4F925F926F927F928F929C
:1024C0009F92AF92BF92CF92DF92EF92FF92CF9303
:1024D000DF9300D000D0CDB7DEB77C01892B09F0A7
:1024E000FFC083E08093E60388E28093040596E9C9
:1024F0009093050597E89093060592E5909307055C
:102500009BE4909308059EE69093090580930A0545
:102510008EEB90E0909308018093070190930A015D
:102520008093090190930C0180930B0190930E010D
:1025300080930D019093100180930F0190931201ED
:102540008093110190931401809313018EEF809377
:102550001C0180931D0180931E0180931F018093B5
:10256000200180932101809322010E94701064E673
:1025700070E080E090E00E940D0485E0E816F10430
:1025800009F033C11092E6038CE38093040582E8DE
:102590008093050587E88093060584E68093070508
:1025A0008FE5809308058093090588E280930A05EA
:1025B0008EE690E0909308018093070190930A01C2
:1025C0008093090190930C0180930B0190930E016D
:1025D00080930D019093100180930F01909312014D
:1025E0008093110190931401809313018EEF8093D7
:1025F0001C0180931D0180931E0180931F01809315
:10260000200180932101809322010E94701064E6D2
:1026100070E080E090E00E940D049AE0E916F10479
:1026200009F036C183E08093E60388E280930405D5
:1026300096E99093050597E89093060592E59093A7
:1026400007059BE4909308059EE690930905809307
:102650000A05109208011092070110920A011092C7
:10266000090110920C0110920B0110920E011092B0
:102670000D011092100110920F018EEB90E09093DB
:102680001201809311019093140180931301109211
:102690001C0110921D0110921E0110921F01109238
:1026A00020018EEF80932101809322010E947010FF
:1026B00064E670E080E090E00F900F900F900F9034
:1026C000DF91CF91FF90EF90DF90CF90BF90AF90D0
:1026D0009F908F907F906F905F904F900C940D041F
:1026E00081E0E816F10479F583E08093E60388E25F
:1026F0008093040596E99093050591E7909306056C
:1027000092E5909307059FE590930805909309053E
:1027100080930A0585E090E090930801809307017B
:1027200090930A018093090190930C0180930B010F
:1027300090930E0180930D019093100180930F01EF
:1027400088EC90E0FBCE92E0E916F10409F0E8C0D5
:1027500083E08093E60388E28093040596E99093F2
:10276000050590E59093060592E5909307059FE592
:10277000909308059093090580930A058AEA90E0F2
:10278000909308018093070190930A0180930901B7
:1027900090930C0180930B0190930E0180930D0197
:1027A0009093100180930F0188EC90E090931201B8
:1027B0008093110190931401809313018EEF809305
:1027C0001C0180931D0180931E0180931F01809343
:1027D000200180932101809322010E94701064E601
:1027E00070E080E090E00E940D0496E0E916F104AC
:1027F00009F0E6C01092E60388E28093040586E9BA
:102800008093050581E78093060584E6809307059C
:102810008BE4809308058EE68093090588E7809312
:102820000A0587E590E09093080180930701909353
:102830000A018093090190930C0180930B019093FE
:102840000E0180930D019093100180930F0182E39C
:1028500090E0909312018093110190931401809362
:1028600013018EEF80931C0180931D0180931E0144
:1028700080931F0180932001809321018093220186
:102880000E94701064E670E080E090E00E940D0409
:102890008BE0E816F10409F0E6C083E08093E603DC
:1028A00088E28093040596E99093050597E8909354
:1028B000060592E5909307059BE4909308059EE634
:1028C0009093090580930A05109208011092070160
:1028D00010920A011092090182EB90E090930C0192
:1028E00080930B0124E630E030930E0120930D011C
:1028F0001092100110920F013093120120931101D8
:10290000909314018093130110921C0110921D01E9
:102910008EEF80931E0180931F0110922001C2CE82
:102920001092E60383E0E816F10409F0C9C088E2DA
:102930008093040596E99093050590E5909306052C
:1029400092E5909307059DE29093080597E8909390
:10295000090580930A0584E690E09093080180932E
:10296000070190930A018093090190930C018093D1
:102970000B0190930E0180930D01909310018093B1
:102980000F01909312018093110190931401809391
:1029900013018EEF80931C0180931D0180931E0113
:1029A00080931F0180932001809321018093220155
:1029B0000E94701064E670E080E090E00E940D04D8
:1029C00087E0E816F10409F00BC183E08093E60389
:1029D00088E28093040596E99093050591E790932A
:1029E000060592E5909307059DE29093080597E808
:1029F0009093090580930A0585EA90E09093080179
:102A00008093070190930A018093090190930C0130
:102A100080930B0190930E0180930D019093100110
:102A200080930F0184EB90E0909312018093110149
:102A300090931401809313018EEF80931C01809377
:102A40001D0180931E0180931F01809320018093BC
:102A50002101809322010E94701064E670E080E002
:102A600090E00E940D049CE0E916F10409F013C106
:102A700083E08093E60388E28093040596E99093CF
:102A8000050597E89093060592E5909307059BE46A
:102A9000909308059EE69093090580930A0510928D
:102AA00008011092070110920A011092090182EBAD
:102AB00090E090930C0180930B0122E330E014CF5F
:102AC00094E0E916F10409F058CD8CE380930405F5
:102AD00082E88093050587E88093060592E5909348
:102AE00007059DE2909308058093090588E280938D
:102AF0000A058BE990E09093080180930701909379
:102B00000A018093090190930C0180930B0190932B
:102B10000E0180930D019093100180930F0181E9C4
:102B200090E090931201809311019093140180938F
:102B300013018FEF80931C0180931D0180931E0170
:102B400080931F01809320018093210180932201B3
:102B50000E94701064E670E080E090E00E940D0436
:102B600089E0E816F10409F058CD88E28093E60385
:102B70006EEF70E080E090E00E94F31169837A8349
:102B80008B839C836EEF70E080E090E00E94F311F5
:102B90006B016EEF70E080E090E00E94F3114B015A
:102BA0006EEF70E080E090E00E94F3112B016EEF79
:102BB00070E080E090E00E94F31170930801609350
:102BC000070150920A014092090190920C018092F3
:102BD0000B01D0920E01C0920D0189819A8125C00E
:102BE00098E0E916F10409F0BBCF88E28093E60390
:102BF0008091250391E08E3F08F490E09195990F24
:102C0000891B8F5F8093250390E090930801809348
:102C1000070190930A018093090190930C0180931E
:102C20000B0190930E0180930D01909310018093FE
:102C30000F018EEB90E0909312018093110190931D
:102C40001401809313010E9470108AE08093E603C0
:102C50008EEF80931C0180931D0180931E01809351
:102C60001F018093200180932101809322010F9006
:102C70000F900F900F90DF91CF91FF90EF90DF902A
:102C8000CF90BF90AF909F908F907F906F905F900C
:102C90004F900C9470100F900F900F900F90DF9149
:102CA000CF91FF90EF90DF90CF90BF90AF909F902B
:102CB0008F907F906F905F904F90089585ED8093F7
:102CC000BC008091140490911504A0911604B09159
:102CD00017040796A11DB11D23E0B695A7959795FA
:102CE00087952A95D1F72091BC0024FD03C010924E
:102CF0001204089540911404509115046091160433
:102D000070911704452B462B472B69F30097A105BB
:102D1000B10541F025E32A95F1F700000197A109DB
:102D2000B109E1CF809113040C948C041F920F928F
:102D30000FB60F9211242F933F934F935F936F938E
:102D40007F938F939F93AF93BF93EF93FF938EE403
:102D500094E00E94B301FF91EF91BF91AF919F91D9
:102D60008F917F916F915F914F913F912F910F9034
:102D70000FBE0F901F9018951F920F920FB60F92D3
:102D800011242F938F939F93EF93FF93E0915E0411
:102D9000F0915F048081E0916404F091650482FD0C
:102DA0001BC09081809167048F5F8F7320916804AE
:102DB000821741F0E0916704F0E0E25BFB4F958FF2
:102DC00080936704FF91EF919F918F912F910F90C6
:102DD0000FBE0F901F9018958081F4CF1F920F9215
:102DE0000FB60F9211242F933F938F939F93AF931E
:102DF000BF9380913E0490913F04A0914004B09114
:102E000041043091EA0223E0230F2D3758F5019653
:102E1000A11DB11D2093EA0280933E0490933F04CC
:102E2000A0934004B09341048091EB029091EC0296
:102E3000A091ED02B091EE020196A11DB11D80930B
:102E4000EB029093EC02A093ED02B093EE02BF91DF
:102E5000AF919F918F913F912F910F900FBE0F9047
:102E60001F90189526E8230F0296A11DB11DD2CF01
:102E70001F920F920FB60F9211242F933F934F93EF
:102E80005F936F937F938F939F93AF93BF93EF93D2
:102E9000FF938091B900887F803609F44AC0F0F52D
:102EA000883209F4A7C018F5803109F49BC0B8F442
:102EB000882309F4F9C0883009F494C0FF91EF9198
:102EC000BF91AF919F918F917F916F915F914F9142
:102ED0003F912F910F900FBE0F901F901895883142
:102EE00009F488C0803251F78093100414C08034F4
:102EF00009F49DC040F48033B9F38833F9F6809328
:102F0000100485ECB0C0803509F485C0883509F41B
:102F100096C0883499F60E945E16D0CF883909F49D
:102F20008CC038F5883729F050F4883611F0803796
:102F300029F683E0809312041092E90257C0883882
:102F400009F47BC0803919F0803809F0B7CF80913F
:102F5000E902803208F071C0E091E90281E08E0F51
:102F60008093E9028091BB00F0E0E753FD4F80833E
:102F70003DC0803B39F0E0F4803A09F479C0883AEA
:102F800009F09CCF84E0809312041092C802109242
:102F9000C702E091F102F091F20209958091C70217
:102FA00081110FC081E08093C7021092A70209C06F
:102FB000803C09F4A6CF883C09F4A3CF883B09F0F4
:102FC0007DCFE091C80281E08E0F8093C802F0E0CF
:102FD000E955FD4F80818093BB009091C80280919C
:102FE000C70229C080910D048093BB0085EC8093BB
:102FF000BC0064CF90910F0480910E04981758F58F
:10300000E0910F0481E08E0F80930F04F0E0E45113
:10301000FC4F8081E9CFE0910F0481E08E0F809317
:103020000F048091BB00F0E0E451FC4F808390914D
:103030000F0480910E049817C8F285E8D8CFE0916C
:103040000F0481E08E0F80930F048091BB00F0E0AD
:10305000E451FC4F80838091110481115CCF81E0A9
:1030600080930C0484EA8093BC001092120426CF53
:1030700085EC8093BC00109212048091E9028032AA
:1030800030F4E091E902F0E0E753FD4F10826091E7
:10309000E90270E0E091EF02F091F00289EC92E039
:1030A00009951092E9020ACF1092100434CFEEE491
:1030B000F4E01382128288EE93E0A0E0B0E0848313
:1030C0009583A683B7832CE132E03183208325ECFE
:1030D00030E03587248724EC30E03787268720ECE2
:1030E00030E0318B208B21EC30E0338B228B22ECD3
:1030F00030E0358B248B26EC30E0378B268B118E1D
:10310000128E138E148EEBEEF4E02FEF20831282DA
:103110001182148613864FEF5FEFBA014783508701
:1031200061877287E8EFF4E01382128284839583CB
:10313000A683B7838EE292E091838083A2E1B5E01B
:1031400080E48C931296FC93EE931197EBE0F5E0FC
:1031500088E2808346E9418330E5328313822BE4A1
:1031600024839EE695838683E4E0F5E080834183B3
:10317000328313822483958386830895789484B55B
:10318000826084BD84B5816084BD85B5826085BD63
:1031900085B5816085BD80916E00816080936E00F1
:1031A00010928100809181008260809381008091E3
:1031B0008100816080938100809180008160809394
:1031C00080008091B10084608093B1008091B00054
:1031D00081608093B00080917A00846080937A004F
:1031E00080917A00826080937A0080917A00816079
:1031F00080937A0080917A00806880937A001092A0
:10320000C100E0915E04F0915F0482E08083E09170
:103210005A04F0915B041082E0915C04F0915D042B
:103220008FEC808310926604E0916204F091630455
:1032300086E08083E0916004F09161048081806188
:103240008083E0916004F0916104808188608083D4
:10325000E0916004F0916104808180688083E09156
:103260006004F091610480818F7D80838FE392E020
:103270000E94810E109219041092180410923B04BF
:1032800010923A040E946E0483E391E09093F2025C
:103290008093F10284E391E09093F0028093EF0237
:1032A00060E880E00E9462066AE070E080E090E002
:1032B0000E940D0460E070E08AE794E40E94D60F5B
:1032C00080E498E7ADE7B1E080931505909316058B
:1032D000A0931705B093180560E070E088E492E4CD
:1032E0000E94D60F80910403811111C083EF92E0F8
:1032F0000E94030E109203031092020388EF91E0E4
:103300009093F4028093F30281E08093040383EFAF
:1033100092E00E942F098FE893E09093F602809349
:10332000F50285E190E09093010380930003809182
:10333000EE049091EF04A091F004B091F104843C6C
:1033400029E09207A105B10520F484EC99E0A0E002
:10335000B0E08093EE049093EF04A093F004B09358
:10336000F10480911D03811111C08CE093E00E9453
:10337000030E10921C0310921B038AE092E09093BC
:103380000D0380930C0381E080931D038CE093E098
:103390000E94920B86E293E090930F0380930E03BA
:1033A00083E290E090931A03809319038091EE04D6
:1033B0009091EF04A091F004B091F104843CE9E015
:1033C0009E07A105B10520F484EC99E0A0E0B0E0EF
:1033D0008093EE049093EF04A093F004B093F10473
:1033E0000E94330C6093CE037093CF038093D0037D
:1033F0009093D1030E94330C83E00E94080182E085
:103400000E94080186E00E94080183E00E946B028E
:1034100021E0892B09F420E02093D60382E00E946A
:103420006B0221E0892B09F420E02093EA0386E077
:103430000E946B0221E0892B09F420E02093EB032A
:1034400080E480937C0080917A00806480937A008D
:1034500080917A0086FDFCCF8091780060917900A0
:10346000762F682F072E000C880B990B61157105BC
:103470008105910511F00E94E4201092E9036FEF9D
:1034800070E080E090E00E94F3116093250381E5F5
:1034900092E00E94810E0BE015E0C0E0F80161911E
:1034A0008F0170E090E080E00E946A224C2F0E9421
:1034B000520CD4E0DC0FBC018D2F0E948C0F6CE20B
:1034C00071E080E090E00E940D0450E040E060E098
:1034D00070E18D2F0E941A06CF5FC730F9F68DE597
:1034E00092E00E94810E1092E603D12CC12CF12CA7
:1034F000E12C10E000E030E020E050E040E070E03F
:1035000060E090E080E00E94A90D60E080E00E9411
:10351000910D0E94701064E670E080E090E00E94DF
:103520000D0485E08093E6038EEBC82ED12C9EEB34
:10353000E92EF12C30E020E050E040E070E060E067
:1035400090E080E00E94A90D10921C0110921D01D4
:1035500010921E0110921F01109220018FEF809394
:103560002101809322010E9470108EE18093E60376
:1035700023E0B22EC1E032E0A32ED5E04EEB242EA4
:10358000312C14E6812E02E3902E0E940D128091C0
:10359000EB038823E9F08091EA03882371F080919E
:1035A000E9038F5F8093E90390E00E945B1268EE6D
:1035B00073E080E090E00E940D0480E090E0892BB1
:1035C00021F30E949F018823E1F20E940000D9CFDD
:1035D000C090D203D090D303E090D403F090D503F1
:1035E000C701B6010E94A7229B01AC01C701B60129
:1035F0000E9450216B017C0120E030E040E05FE35D
:103600000E9474231816C4F428EB3EE145E05FE302
:10361000C701B6010E94BD2187FF0EC065E070E0C2
:1036200080E090E00E94F311645D7E4F8F4F9F4FCA
:103630007093E8036093E7030E94330C2091CE035C
:103640003091CF034091D0035091D1030E9450217B
:103650006093D2037093D3038093D4039093D503E4
:103660000E940D126091E7037091E80390E080E002
:103670004AE00E943D0E8FE692E00E94300E80915B
:10368000D60390E00E948F0E8FE692E00E94300EEB
:103690008091EA0390E00E948F0E8FE692E00E94F4
:1036A000300E8091EB0390E00E948F0E8FE692E047
:1036B0000E94300EC090D203D090D303E090D40388
:1036C000F090D503A7019601C701B6010E94E62339
:1036D000882309F448C085E792E00E94300E8FE607
:1036E00092E00E94300E6091E50370E090E080E08F
:1036F0004AE00E943D0E8FE692E00E94300E6091FB
:10370000E90370E090E080E04AE00E943D0E83E72C
:1037100092E00E94810E8091E7039091E803853743
:10372000910509F48CC308F082C18936910509F42A
:103730003FC308F065C18636910509F4CCC208F094
:10374000A4C08436910509F497C28536910509F421
:10375000BDC21092E8031092E7038091E90390E064
:103760000E945B122ACF26013701E89477F82FEFE9
:103770003FEF4FE75FE7C301B2010E94E6238111EB
:103780000DC02FEF3FEF4FE75FE7C301B2010E948B
:10379000BD2118161CF489E792E09FCF2FEF3FEF71
:1037A0004FE75FE4C701B6010E94742318161CF4AA
:1037B0008DE792E092CF2FEF3FEF4FE75FECC7012D
:1037C000B6010E94BD2187FDF3CF20E030E0A901C2
:1037D000C701B6010E94BD2187FF09C06DE28EE4DA
:1037E00094E00E94D501F7FAF094F7F8F0942AE0FB
:1037F00037ED43EA5BE3C701B6010E9451212B017B
:103800003C010E943B226B017C010E946A229B01C9
:10381000AC01C301B2010E9450212B013C014AE0DE
:10382000C701B6010E943D0E6EE28EE494E00E9454
:10383000D50120E030E040E251E4C301B2010E9432
:1038400079232B013C010E943B226B01F12CE12CDE
:103850004AE0C701B6010E943D0EC701B6010E94B1
:103860006A229B01AC01C301B2010E94502120E0F9
:1038700030E040E251E40E9479230E943B2290E034
:1038800080E04AE00E943D0E2ACF8736910509F478
:1038900039C28836910509F05CCF84E08093E60355
:1038A00010921C0110921D0110921E0110921F0116
:1038B0001092200110922101109222010E9470109A
:1038C00068EE73E080E090E00E940D0460E080E02C
:1038D0000E94910D0091DF031091E0032091DD0320
:1038E0003091DE034091DB035091DC036091D903FA
:1038F0007091DA03E4E6CE2ED12CF4E6EF2EF12C13
:103900008091D7039091D8030E94A90D0E94701056
:1039100009E110E0A2E3CA2ED12CE12CF12C60E0E9
:1039200080E00E94910DC701B6010E940D04B8010C
:10393000012E000C880B990B0E946C2220E030E0D5
:1039400040E05FE30E9451210E943422862F0E94B2
:10395000910DC701B6010E940D0481E0C81AD1087B
:10396000E108F1080C5F1F4FC114D104E104F10418
:10397000B1F6B092E90383E090E00E945B12D0932D
:10398000E60398E4E92EE092040523E8F22EF09293
:1039900005050E94701064E670E080E090E00E94EF
:1039A0000D0408E20093040516E9109305050E9432
:1039B00070106CE271E080E090E00E940D04E092F3
:1039C0000405F09205050E94701064E670E080E046
:1039D00090E00E940D0400930405109305050E94D9
:1039E00070106CE271E080E090E00E940D0468EEDF
:1039F00073E080E090E00E940D04D093E6037FC165
:103A00008C36910589F060F48A36910509F4EAC193
:103A10008B36910509F09DCE86E08093E603CEC0FB
:103A20008437910508F40BC2C093E60368C18D3D4D
:103A3000910508F0C6C0853D910508F09AC2883707
:103A4000910509F45DC208F0B5C08637910509F407
:103A5000F9C18737910509F07CCE1092E603C09337
:103A60000001C0930101C093020184E0809303012F
:103A70008093040180930501B09206018EE6809345
:103A8000080586E480930905909207050E9470104E
:103A900068EC70E080E090E00E940D0483E0682E06
:103AA000712C84EB80930805809207050E947010AA
:103AB00066E470E080E090E00E940D046FEF70E03B
:103AC00080E090E00E94F311E62EF12C0091DF03DC
:103AD0001091E0032091DD033091DE034091DB0380
:103AE0005091DC036091D9037091DA0367018091F2
:103AF000D7039091D8030E94A90D9EE690930805E4
:103B00000E94701066E470E080E090E00E940D0476
:103B100010920905909207050E94701066E470E00B
:103B200080E090E00E940D046FEF70E080E090E094
:103B30000E94F311E62EF12C0091DF031091E003B7
:103B40002091DD033091DE034091DB035091DC03D3
:103B50006091D9037091DA0367018091D703909146
:103B6000D8030E94A90DE6E4E09309050E947010B5
:103B700066E470E080E090E00E940D04F1E06F1ACE
:103B8000710809F08ECFC0930001C0930101C0936A
:103B90000201A0920301A0920401A0920501B0923B
:103BA0000601C093E6030E94831164E670E080E0A2
:103BB00090E0A3C1883C910508F4CBCD0E94AB11E5
:103BC000C8CD8E32F1E09F0709F41DC208F044C051
:103BD0008C32E1E09E0709F4CFC18D32914009F0AB
:103BE000B8CD8AE08093E603C0930001C093010141
:103BF000A0920201C0930301D0930401D093050168
:103C0000B092060188E7809304050E94701064E674
:103C100070E080E090E00E940D0418E2109304052B
:103C20000E94701068EE73E080E090E00E940D0446
:103C30008BE68093040580E6809305050E94701052
:103C400064E670E080E090E00E940D0410930405AB
:103C500086E980930505D4C18F3221E0920709F4EB
:103C60000FC28233914008F074CDC093E60388E020
:103C700090E00E94C3116DCD84E18093E60387E359
:103C8000809304050E94701068EC70E080E090E082
:103C90000E940D041092E60318E2109304050E949E
:103CA000701060ED77E080E090E00E940D048BE6FC
:103CB000809304050E947010109304050E947010F8
:103CC0008091E5038F5F8093E50343CD1092E60377
:103CD0000E948311F5CFD093E6038FE5809308050A
:103CE00080930905F0E5F0930605809207050E9490
:103CF00070106CE271E080E090E00E940D040E9480
:103D0000831127CDB092E603B4E16B2E712C64EBE6
:103D100070E080E090E00E94F3116093080564EB8E
:103D200070E080E090E00E94F3116093090562E387
:103D300070E080E090E00E94F3116E5C7F4F8F4F47
:103D40009F4F609307056FEF70E080E090E00E9466
:103D5000F311E62E0E947010F12C0091DF031091F8
:103D6000E0032091DD033091DE034091DB035091AD
:103D7000DC036091D9037091DA0367018091D70366
:103D80009091D8030E94A90D6EE071E080E090E070
:103D90000E94F311625E7F4F8F4F9F4F0E940D0470
:103DA00021E0621A710809F0B2CFD093E60306CF82
:103DB0008AE08093E9038AE090E00E945B1287E842
:103DC000809306050E94701085E090E00E94C31168
:103DD00084E18093E603D093E90385E090E00E94BC
:103DE0005B128DCFC093E60389E68093080592E5C8
:103DF000909307050E94701068EE73E080E090E0F9
:103E00000E940D04909207050E94701064EF71E00B
:103E100080E090E00E940D04809207050E947010DF
:103E200064EF71E080E090E00E940D04E2E5E09331
:103E300007050E94701087E08093E60360CFC0936F
:103E4000E603BCCEF0E5F09306053092080120921F
:103E5000070130920A012092090130920C01209250
:103E60000B0130920E0120920D0130921001209230
:103E70000F01309212012092110130921401209210
:103E800013010E94701018E78091D603811104C0BD
:103E90008091EA03882341F120EA20930A050E94D9
:103EA000701068EC70E080E090E00E940D041093C8
:103EB0000A050E94701068EC70E080E090E00E94BB
:103EC0000D0483E00E946B0221E0892B09F420E0BD
:103ED0002093D60382E00E946B0221E0892B09F433
:103EE00020E02093EA03D0CF88E280930A050E9465
:103EF000701068EC70E080E090E00E940D0429CC26
:103F000084E18093E60310921C0110921D0110922F
:103F10001E0110921F011092200110922101109297
:103F200022010E9470101092E6038AE08093000143
:103F300080930101A0920201C0930301D093040178
:103F4000D0930501B09206010E948311C093000135
:103F5000C0930101A0920201C0930301D093040118
:103F6000D0930501B092060168EE73E080E090E026
:103F7000C4CF0E949711EDCB2FE02093E603C093AE
:103F80000001C0930101A0920201C0930301D093EC
:103F90000401D0930501B0920601809207050E94AA
:103FA000701068EE73E080E090E00E940D0482E5FE
:103FB000809307050E94701068EE73E080E090E047
:103FC0000E940D0490E5909306059092070586E403
:103FD000809308051EE6109309050E94701068EE94
:103FE00073E080E090E00E940D04E2E5E0930705B5
:103FF00087E8809306058BE48093080510930905F4
:104000000E947010A6CB8AE08093E603C093000163
:10401000C0930101A0920201C0930301D093040157
:10402000D0930501B0920601F2E5F09307050E94D6
:10403000701064EF71E080E090E00E940D048092C7
:1040400007050E94701064EF71E080E090E00E942C
:104050000D04909207050E94701064EF71E080E0FB
:1040600090E00E940D04809207050E94701064EF9A
:1040700071E080E090E00E940D0490920705C0CFAF
:104080006AE070E080E090E00E94F3116093E90341
:104090006BCF8F929F92AF92BF92CF92DF92EF92AF
:1040A000FF92CF93DF93EC01688179818A819B81B4
:1040B000611571058105910521F464E279ED8BE5C7
:1040C00097E02DE133EF41E050E00E94ED204901FF
:1040D0005A019B01AC01A7EAB1E40E940C216B01DB
:1040E0007C01ACEEB4EFA50194010E941A21C60E2A
:1040F000D71EE81EF91EF7FE06C081E0C81AD108D7
:10410000E10880E8F80AC882D982EA82FB82C70106
:10411000B6019F77DF91CF91FF90EF90DF90CF9026
:10412000BF90AF909F908F9008958F929F92AF9283
:10413000BF92CF92DF92EF92FF9260912301709134
:104140002401809125019091260161157105810559
:10415000910521F464E279ED8BE597E02DE133EFF1
:1041600041E050E00E94ED2049015A019B01AC0161
:10417000A7EAB1E40E940C216B017C01ACEEB4EF24
:10418000A50194010E941A21C60ED71EE81EF91E31
:10419000F7FE06C081E0C81AD108E10880E8F80AF5
:1041A000C0922301D0922401E0922501F0922601D1
:1041B000C701B6019F77FF90EF90DF90CF90BF903F
:1041C000AF909F908F900895609323017093240186
:1041D00080932501909326010895052E97FB1EF4E8
:1041E00000940E94042157FD07D00E941F2107FC64
:1041F00003D04EF40C9404215095409530952195B0
:104200003F4F4F4F5F4F0895909580957095619502
:104210007F4F8F4F9F4F08950E944121A59F900D82
:10422000B49F900DA49F800D911D11240895B7FF98
:104230000C940C210E940C21821B930B0895A1E287
:104240001A2EAA1BBB1BFD010DC0AA1FBB1FEE1F10
:10425000FF1FA217B307E407F50720F0A21BB30B5B
:10426000E40BF50B661F771F881F991F1A9469F7D7
:1042700060957095809590959B01AC01BD01CF0133
:104280000895A29FB001B39FC001A39F700D811D2F
:104290001124911DB29F700D811D1124911D08954F
:1042A0005058BB27AA270E9468210C9422230E9401
:1042B000142338F00E941B2320F039F49F3F19F497
:1042C00026F40C9411230EF4E095E7FB0C94E22203
:1042D000E92F0E94332358F3BA1762077307840744
:1042E000950720F079F4A6F50C946D230EF4E09573
:1042F0000B2EBA2FA02D0B01B90190010C01CA01A0
:10430000A0011124FF27591B99F0593F50F4503E4A
:1043100068F11A16F040A22F232F342F4427585F3C
:10432000F3CF469537952795A795F0405395C9F754
:104330007EF41F16BA0B620B730B840BBAF091500C
:10434000A1F0FF0FBB1F661F771F881FC2F70EC0AB
:10435000BA0F621F731F841F48F48795779567957E
:10436000B795F7959E3F08F0B0CF9395880F08F06A
:104370009927EE0F9795879508950E94BE2208F41D
:1043800081E008950E94D6210C9422230E941B23D1
:1043900058F00E94142340F029F45F3F29F00C9458
:1043A000E22251110C946E230C9411230E943323AA
:1043B00068F39923B1F3552391F3951B550BBB2754
:1043C000AA2762177307840738F09F5F5F4F220F99
:1043D000331F441FAA1FA9F335D00E2E3AF0E0E890
:1043E00032D091505040E695001CCAF72BD0FE2FDA
:1043F00029D0660F771F881FBB1F2617370748076E
:10440000AB07B0E809F0BB0B802DBF01FF27935825
:104410005F4F3AF09E3F510578F00C94E2220C94E5
:104420006E235F3FE4F3983ED4F3869577956795C6
:10443000B795F7959F5FC9F7880F911D969587955A
:1044400097F90895E1E0660F771F881FBB1F621779
:1044500073078407BA0720F0621B730B840BBA0B37
:10446000EE1F88F7E09508950E943B226894B111F1
:104470000C946E2308950E943B2388F09F5798F078
:10448000B92F9927B751B0F0E1F0660F771F881F59
:10449000991F1AF0BA95C9F714C0B13091F00E9473
:1044A0006D23B1E008950C946D23672F782F882732
:1044B000B85F39F0B93FCCF3869577956795B3959A
:1044C000D9F73EF490958095709561957F4F8F4F09
:1044D0009F4F0895E89409C097FB3EF4909580950E
:1044E000709561957F4F8F4F9F4F9923A9F0F92FBA
:1044F00096E9BB279395F695879577956795B79538
:10450000F111F8CFFAF4BB0F11F460FF1BC06F5F1D
:104510007F4F8F4F9F4F16C0882311F096E911C02F
:10452000772321F09EE8872F762F05C0662371F050
:1045300096E8862F70E060E02AF09A95660F771F64
:10454000881FDAF7880F9695879597F908950E9446
:10455000552390F09F3748F4911116F00C946E2378
:1045600060E070E080E89FEB089526F41B16611D63
:10457000711D811D0C94E8220C940323990F0008EF
:10458000550FAA0BE0E8FEEF16161706E807F90725
:10459000C0F012161306E407F50798F0621B730BC0
:1045A000840B950B39F40A2661F0232B242B252B41
:1045B00021F408950A2609F4A140A6958FEF811DE4
:1045C000811D089597F99F6780E870E060E0089585
:1045D000882371F4772321F09850872B762F07C01A
:1045E000662311F499270DC09051862B70E060E08E
:1045F0002AF09A95660F771F881FDAF7880F96952D
:10460000879597F908959F3F31F0915020F4879551
:1046100077956795B795880F911D9695879597F92A
:1046200008959FEF80EC089500240A94161617064B
:1046300018060906089500240A9412161306140693
:1046400005060895092E0394000C11F4882352F0F6
:10465000BB0F40F4BF2B11F460FF04C06F5F7F4FAE
:104660008F4F9F4F089557FD9058440F551F59F095
:104670005F3F71F04795880F97FB991F61F09F3F4F
:1046800079F087950895121613061406551FF2CF78
:104690004695F1DF08C0161617061806991FF1CFC8
:1046A000869571056105089408950E943B23A0F04A
:1046B000BEE7B91788F4BB279F3860F41616B11D02
:1046C000672F782F8827985FF7CF8695779567951E
:1046D000B11D93959639C8F30895E894BB276627D2
:1046E0007727CB0197F908950E94BE2208F48FEF37
:1046F00008950E948C230C9422230E94142338F0E6
:104700000E941B2320F0952311F00C94E2220C94BC
:10471000112311240C946E230E94332370F3959F70
:10472000C1F3950F50E0551F629FF001729FBB27A8
:10473000F00DB11D639FAA27F00DB11DAA1F649F44
:104740006627B00DA11D661F829F2227B00DA11DF7
:10475000621F739FB00DA11D621F839FA00D611D7D
:10476000221F749F3327A00D611D231F849F600D9E
:10477000211D822F762F6A2F11249F5750409AF0C7
:10478000F1F088234AF0EE0FFF1FBB1F661F771F53
:10479000881F91505040A9F79E3F510580F00C941E
:1047A000E2220C946E235F3FE4F3983ED4F38695A7
:1047B00077956795B795F795E7959F5FC1F7FE2BBE
:1047C000880F911D9695879597F908950E94BE22AE
:1047D000880B990B0895DB018F939F930E940C2106
:1047E000BF91AF91A29F800D911DA39F900DB29F8D
:1047F000900D1124089597FB072E16F4009407D00E
:1048000077FD09D00E94162407FC05D03EF4909550
:1048100081959F4F0895709561957F4F08950E94EF
:104820004121B7FF0895821B930B0895AA1BBB1B60
:1048300051E107C0AA1FBB1FA617B70710F0A61BA0
:10484000B70B881F991F5A95A9F780959095BC01C1
:10485000CD010895EE0FFF1F0590F491E02D09940E
:1048600081E090E0F8940C943524F894FFCF010196
:10487000010101010178007800780078007800508B
:1048800000C800646464646464646464646464644C
:1048900064010000000300360037000D00220023F1
:1048A000002400250026002700280029002A002BCC
:1048B000002C002D000E0000000100020003000487
:1048C00000050006000700080009000A000B000CA4
:1048D000000E00150016001700180019001A001B22
:1048E000001C001D001E001F002000210009000DFB
:1048F000000E000F00100011001200130014000B36
:10490000002E002F0030003100320033003400351B
:10491000000000000000000000F111F111F111E2AF
:104920000DDE0DDB0D0101020105050391017F0183
:10493000630147012D012701B4B4B4B4B4B4B4F495
:1049400001F401F401F401F401F401F401C409C417
:1049500009C409C409C409C409C40900000000004D
:10496000000000000000F00B940B2F09E20DDE0D9B
:104970003001CE0600000000F00B940B920BE20D0C
:10498000DE0D3001310900000000D5013501620162
:104990002202930171018501000000000405D70483
:1049A0008E06AD04D004BD04AE040D0A00496E6944
:1049B0007469616C697A652053797374656D004917
:1049C0006E697420736572766F73005374617274CC
:1049D000696E672073657175656E63650020207C64
:1049E0002020006E616E00696E66006F76660000C2
:107800000C94343C0C94513C0C94513C0C94513CE1
:107810000C94513C0C94513C0C94513C0C94513CB4
:107820000C94513C0C94513C0C94513C0C94513CA4
:107830000C94513C0C94513C0C94513C0C94513C94
:107840000C94513C0C94513C0C94513C0C94513C84
:107850000C94513C0C94513C0C94513C0C94513C74
:107860000C94513C0C94513C11241FBECFEFD8E036
:10787000DEBFCDBF11E0A0E0B1E0ECE9FFE702C060
:1078800005900D92A230B107D9F712E0A2E0B1E065
:1078900001C01D92AD30B107E1F70E942D3D0C945F
:1078A000CC3F0C94003C982F959595959595959582
:1078B000905D8F708A307CF0282F295A8091C0000B
:1078C00085FFFCCF9093C6008091C00085FFFCCF60
:1078D0002093C6000895282F205DF0CF982F809127
:1078E000C00085FFFCCF9093C6000895EF92FF92F1
:1078F0000F931F93EE24FF2487018091C00087FD22
:1079000017C00894E11CF11C011D111D81E4E8164B
:1079100082E4F8068FE0080780E0180770F3E09132
:107920000401F091050109958091C00087FFE9CF1E
:107930008091C6001F910F91FF90EF9008950E94D3
:10794000763C982F8091C00085FFFCCF9093C600B5
:1079500091362CF490330CF09053892F089597555D
:10796000892F08951F930E949F3C182F0E949F3CCF
:107970001295107F810F1F9108951F93182F882350
:1079800021F00E94763C1150E1F71F9108951F935A
:10799000182F0E94763C803249F0809103018F5F5E
:1079A000809303018530C1F01F9108958091C0003C
:1079B00085FFFCCF84E18093C6008091C00085FFE5
:1079C000FCCF1093C6008091C00085FFFCCF80E102
:1079D0008093C6001F910895E0910401F091050184
:1079E00009951F9108950E94763C803241F0809164
:1079F00003018F5F80930301853081F008958091AA
:107A0000C00085FFFCCF84E18093C6008091C00058
:107A100085FFFCCF80E18093C6000895E0910401CA
:107A2000F09105010995089540E951E08823A1F0FE
:107A30002D9A28EE33E0FA013197F1F721503040CA
:107A4000D1F72D9828EE33E0FA013197F1F7215064
:107A50003040D1F7815061F708953F924F925F9285
:107A60006F927F928F929F92AF92BF92CF92DF924E
:107A7000EF92FF920F931F93CF93DF93000080E16B
:107A80008093C4001092C50088E18093C10086E015
:107A90008093C2005098589A259A81E00E94143D24
:107AA00024E1F22E9EE1E92E85E9D82E0FE0C02ECA
:107AB00010E1B12EAA24A394B1E49B2EA6E58A2E50
:107AC000F2E57F2EE0E26E2E79E4572E63E5462E36
:107AD00050E5352E0E94763C8033B1F18133B9F107
:107AE000803409F46FC0813409F476C0823409F41B
:107AF00085C0853409F488C0803531F1823521F1A3
:107B0000813511F1853509F485C0863509F48DC0BC
:107B1000843609F496C0843709F403C1853709F423
:107B200072C1863709F466C0809103018F5F80932C
:107B30000301853079F6E0910401F0910501099582
:107B40000E94763C803351F60E94F33CC3CF0E94E2
:107B5000763C803249F78091C00085FFFCCFF092DF
:107B6000C6008091C00085FFFCCF9092C600809136
:107B7000C00085FFFCCF8092C6008091C00085FFC9
:107B8000FCCF7092C6008091C00085FFFCCF609250
:107B9000C6008091C00085FFFCCF5092C600809146
:107BA000C00085FFFCCF4092C6008091C00085FFD9
:107BB000FCCF3092C6008091C00085FFFCCFB09210
:107BC000C60088CF0E94763C863808F4BDCF0E945C
:107BD000763C0E94F33C7ECF0E94763C803809F4CC
:107BE0009CC0813809F40BC1823809F43CC1883942
:107BF00009F48FC080E00E94C73C6CCF84E10E94F2
:107C0000BD3C0E94F33C66CF85E00E94BD3C0E94D3
:107C1000F33C60CF0E94763C809306010E94763C44
:107C2000809307010E94F33C55CF0E94763C80333D
:107C300009F41DC183E00E94BD3C80E00E94C73C66
:107C400049CF0E94763C809309020E94763C809343
:107C5000080280910C028E7F80930C020E94763C79
:107C6000853409F415C18091080290910902892B8D
:107C700089F000E010E00E94763CF801E85FFE4FDA
:107C800080830F5F1F4F80910802909109020817AF
:107C9000190788F30E94763C803209F045CF809125
:107CA0000C0280FF01C16091060170910701660F0F
:107CB000771F7093070160930601A0910802B091AD
:107CC00009021097C9F0E8E0F1E09B01AD014E0F09
:107CD0005F1FF999FECF32BD21BD819180BDFA9A17
:107CE000F99A2F5F3F4FE417F50799F76A0F7B1F4B
:107CF00070930701609306018091C00085FFFCCF5F
:107D0000F092C6008091C00085FFFCCFB092C60003
:107D1000E1CE83E00E94C73CDDCE82E00E94C73CFA
:107D2000D9CE0E94763C809309020E94763C8093D3
:107D300008028091060190910701880F991F909386
:107D40000701809306010E94763C853409F4A6C0A1
:107D500080910C028E7F80930C020E94763C8032D0
:107D600009F0B8CE8091C00085FFFCCFF092C6002C
:107D7000609108027091090261157105B9F140E046
:107D800050E080910C02A82FA170B82FB27011C0E2
:107D9000BB2309F45CC0E0910601F0910701319624
:107DA000F0930701E09306014F5F5F4F46175707B7
:107DB000E8F4AA2369F3F999FECF209106013091E6
:107DC000070132BD21BDF89A90B58091C00085FFB2
:107DD000FCCF9093C6002F5F3F4F30930701209355
:107DE00006014F5F5F4F4617570718F38091C00099
:107DF00085FDE5CE8091C00085FFF8CFE0CE81E023
:107E00000E94C73C67CE0E94763C803209F08CCE3F
:107E10008091C00085FFFCCFF092C6008091C00029
:107E200085FFFCCFE092C6008091C00085FFFCCFAB
:107E3000D092C6008091C00085FFFCCFC092C600E2
:107E40008091C00085FFFCCFB092C60043CEE09188
:107E50000601F091070194918091C00085FFFCCF4D
:107E60009093C6009CCF80E10E94C73C33CE0E9415
:107E7000763C0E94763C182F0E94763C112309F430
:107E800083C0113009F484C08FE00E94C73C22CE29
:107E900080910C02816080930C02E5CE80910C02EF
:107EA000816080930C0259CF809107018823880F4D
:107EB000880B8A2180930B02809106019091070123
:107EC000880F991F90930701809306018091080203
:107ED00080FF09C080910802909109020196909359
:107EE000090280930802F894F999FECF1127E091D6
:107EF0000601F0910701C8E0D1E08091080290915D
:107F00000902103091F40091570001700130D9F34B
:107F100003E000935700E89500915700017001308D
:107F2000D9F301E100935700E89509901990009169
:107F3000570001700130D9F301E000935700E89534
:107F40001395103498F011270091570001700130FB
:107F5000D9F305E000935700E895009157000170B0
:107F60000130D9F301E100935700E895329602976A
:107F700009F0C7CF103011F00296E5CF112480919F
:107F8000C00085FFB9CEBCCE8EE10E94C73CA2CD19
:0E7F900085E90E94C73C9ECDF894FFCF80008B
:00000001FF
